:1000000002000375815D120177E582600302006FD3
:10001000780079007A007B007C007D00EC4D601C4C
:1000200088828983E493A3A882A9838A828B83F040
:10003000A3AA82AB831CBCFFE31D80E07582007520
:1000400083007C007D00EC4D600AE4F0A31CBCFF43
:10005000F51D80F27582007583007C007D00EC4DFB
:10006000600AE4F0A31CBCFFF51D80F212017612B9
:1000700003F180FE1B5B324A0045464D3820467234
:10008000657175656E6379206D6561737572656DF7
:10009000656E74207573696E672054696D65722F83
:1000A000436F756E74657220302E0A46696C653A2E
:1000B0002025730A436F6D70696C65643A2025735F
:1000C0002C2025730A0A00433A5C55736572735CF1
:1000D000636F7372335C446F63756D656E74735CCC
:1000E0004769744875625C454C45432D3239312D62
:1000F0004C6162345C4C6162342E63004665622060
:10010000323820323032340032303A34343A3238F5
:100110000043617020696E206D6963726F46202014
:1001200020002D2D2D2D2D2D2D2D2D2D2D2D4E4500
:100130005720444154412D2D2D2D2D2D2D2D2D2D6C
:100140002D2D2D0A00663D256C75487A000A002584
:10015000666D6963726F460043617020696E206E40
:10016000616E6F46202020200025666E616E6F460E
:10017000001B5B304B002275A7007597DE7597ADAD
:1001800043FF8075EF0275A71075C12075A7007534
:10019000A90075A900E5A930E7FB75A90375A903B6
:1001A000E5A930E7FB43A41075E10175E21075E3A2
:1001B00040759810858E8E758DE6858D8B53890FD1
:1001C000438920D28ED29975820022AA82438E4022
:1001D0007592B87593FF8592948593957591047B7C
:1001E00000C3EB9A5012E59130E7FB53917F108DDD
:1001F00002800205220B80E975910022AA82AB835E
:10020000BA0004BB0001227582F9C002C0031201CA
:10021000CB7582F91201CB7582F91201CB7582FA86
:100220001201CBD003D0021ABAFF011B80D253892E
:10023000F0438905C28C22D2A07582281201CBC25C
:10024000A022AA828AE0A2E79290A2E69291A2E579
:100250009292A2E49293C002120237758228120190
:10026000CBD0028AE0A2E39290A2E29291A2E19224
:1002700092A2E09293020237AA82D2978A82120255
:10028000429000020201FCAA82C2978A82120242B4
:100290009000050201FCC2A09000141201FC7582BE
:1002A00033120287758233120287758232120287F7
:1002B00075822812028775820C12028775820112DC
:1002C00002879000140201FCAA82AB83ACF0740296
:1002D000B523047DC080027D808D82C002C003C032
:1002E000041202879000051201FCD004D003D00252
:1002F0007D007E00ED2AFFEE3BF88C018F82888323
:1003000089F01206C1FF60208F82C002C003C004C2
:10031000C005C006120278D006D005D004D003D0A4
:10032000020DBD00CF0E80CC3000248D028E03C3A1
:10033000EA9410EB648094805015758220C002C04E
:1003400003120278D003D0020ABA00E30B80E02245
:1003500085822685832785F028E4F529F52AE5247A
:1003600024FFFFE52534FFF879007A00C3E99FEA0E
:10037000648088F063F08095F05059C002C007C0D7
:1003800000C001120897AB82D001D000D007D00284
:10039000BB0A028003BB0D1DE5292526FCE52A3595
:1003A00027FDAE288C828D838EF0E41208AA852961
:1003B00082852A8322E92526FCEA3527FDAE288C92
:1003C000828D838EF0EB1208AA09B900010A8929EF
:1003D0008A2A8098E5292526FAE52A3527FBAC28C4
:1003E0008A828B838CF0E41208AA85248285258377
:1003F0002212022E9001F41201FC7474C0E0740009
:10040000C0E07480C0E01208631581158115817405
:1004100008C0E07401C0E07480C0E074FCC0E07407
:1004200000C0E07480C0E074C7C0E07400C0E07435
:1004300080C0E07479C0E07400C0E07480C0E01255
:100440000863E58124F4F581120296752301D20038
:1004500090011175F0801202C8758A00758C0075C4
:100460002200C28DD28C9003E81201FCC28CAA2219
:100470007B008B058A047B007A00AE8C7F007800BD
:1004800088018F008E07E42AFAEF3BFBE83CFCE989
:100490003DFDAE8AE4FF3395E0F8F9EE2AFAEF3B32
:1004A000FBE83CFCE93DFD8A118B128C138D149006
:1004B000122AE4F5F0C002C003C004C0051206DD34
:1004C000120884AE82AF83A8F0F9C006C007C0004E
:1004D000C0019051EC75F0B8743F120958AE82AF6C
:1004E00083A8F0F9E58124FCF581C006C007C000AF
:1004F000C00190240075F07474491207ABAE82AF4E
:1005000083A8F0F9E58124FCF581C006C007C0008E
:10051000C0017422C0E07401C0E07480C0E0120821
:1005200063158115811581D001D000D007D006D088
:1005300005D004D003D002C006C007C000C001C06F
:1005400002C003C004C0057445C0E07401C0E0747B
:1005500080C0E0120863E58124F9F581744DC0E0A4
:100560007401C0E07480C0E0120863158115811524
:1005700081D001D000D007D006C006C007C000C09F
:100580000174CDC0E074CCC0E0C0E0743DC0E08E2A
:10059000828F8388F0E912074BAA82E58124FCF55B
:1005A00081D001D000D007D006EA6048752301D27F
:1005B0000090011175F080C006C007C000C0011294
:1005C00002C8744FC0E07401C0E07480C0E0742BB6
:1005D000C0E07400C0E07440C0E0120912E581245C
:1005E000F6F581752302D20090002B75F0401202BF
:1005F000C80206A9C006C007C000C00190800075EF
:10060000F06D74441207ABAE82AF83A8F0F9E581B8
:1006100024FCF581C006C007C000C001E4C0E0C0F2
:10062000E0C0E07441C0E08E828F8388F0E9120759
:100630007BAA82E58124FCF581D001D000D007D0CF
:1006400006EA6020C006C007C000C00190CCCD758E
:10065000F04C743F1207ABAE82AF83A8F0F9E5818E
:1006600024FCF581752301D20090015875F080C0FB
:1006700006C007C000C0011202C87469C0E074015E
:10068000C0E07480C0E0742BC0E07400C0E074402F
:10069000C0E0120912E58124F6F581752302D2002B
:1006A00090002B75F0401202C87471C0E07401C054
:1006B000E07480C0E0120863158115811581020481
:1006C0005920F71430F6148883A88220F507E6A88D
:1006D0008375830022E280F7E49322E022AAF0FBF4
:1006E000E5828511F0A4FCADF0E5838511F0A42D21
:1006F000FDE435F0FEE5828512F0A42DFDE5F03E27
:10070000FEE433FFEA8511F0A42EFEE5F03FFFE59D
:10071000838512F0A42EFEE5F03FFFE5828513F0FD
:10072000A42EFEE5F03FFFEB8511F0A42FFFEA8534
:1007300012F0A42FFFE5838513F0A42FFFE5828537
:1007400014F0A42F8EF08D838C8222FFA8811818BC
:10075000120A95D2D133E6400730E70B75820122A9
:1007600020E70675820022C2D1120A77E97003F5EC
:10077000822230D101B3E433F58222FFA881181818
:10078000120A95D2D133E6400730E70B758200227A
:1007900020E70675820122C2D1120A77E97003F5BB
:1007A000822220D101B3E433F58222120B42BC0035
:1007B00003020AE1EF60FA30D502B2D1E583B4FF5B
:1007C00003020AF7E582B4FF03020AF72583400714
:1007D0002482400B020AE12483145003020AF7F535
:1007E00082EA8DF0A4A8F0EA8EF0A428F8E435F0AF
:1007F000F9EB8DF0A428E935F0F9E433CA8FF0A4C1
:1008000029F9EA35F0FAEBF88EF0A429F9EA35F087
:10081000FAE433FBEC8DF0A429F9EA35F0FAE43B75
:10082000FBE88FF0A42AFAEB35F0FBE433CCFD8E25
:10083000F0A42AFAEB35F0FBE43CFCED8FF0A42B9E
:10084000FBEC35F0FC20E703120B0F020AC0021488
:10085000FC85824A85834B85F04C85104D90084E6F
:10086000020F4FC008858108E50824FBF54DE50817
:1008700024FBF8864A08864B08864C90084E120FD7
:100880004FD00822FCABF0AA83A982749EC2D1F596
:1008900082120B0F020AC010980280FBAA998A826A
:1008A000C0021214FCD0028A822220F71030F61106
:1008B0008883A88220F507F6A88375830022F2803A
:1008C000F7F022AA82AB09AC0AAD0B8B828C838D28
:1008D000F0EA1208AA0509E4B50902050A22858290
:1008E0000985830A85F00B850C4A850D4B850E4CD6
:1008F000850F4D9008C3120F4FAA82AB83AC09AD90
:100900000AAE0B8C828D838EF0E41208AA8A828B49
:100910008322C008858108E50824F8F54DE5082400
:10092000FBF8860908860A08860BE50824F8F8868D
:100930004A08864B08864C9008C3120F4FAA82AB18
:1009400083AC09AD0AAE0B8C828D838EF0E4120865
:10095000AA8A828B83D00822120B4230D502B2D1F0
:10096000BF0009BC0003020B04020AF7BC0003022B
:100970000AE1E583B4FF0BE582B4FF03020B040236
:100980000AE1E582B4FF03020AF7C3958350072406
:100990007F400B020AE12480145003020AF7C0E0F2
:1009A000E4CCCBCAF98D118E128F13EF54F0C4F53D
:1009B000147583068514F0EB84F582E9C4F9EAC462
:1009C000FAEBC4FBEC540FC47803D6FC18EBD6FB4F
:1009D00018EAD6FA8582F0EDA4A8F0FD8582F0EE43
:1009E000A428FEE435F0F88582F0EFA428FFE43572
:1009F000F0F8E99DF9EA9EFAEB9FFBEC98FCAD114B
:100A0000AE12AF1330E7101582E92DF9EA3EFAEB8A
:100A10003FFBE43CFC80EDC082D58398C3E933F909
:100A2000EA33FAEB33FBEC33FCC3E99DEA9EEB9F20
:100A3000EC9400B3E413F9D002D0E0C44AFAD00336
:100A4000D0E0C44BFBD004D0E0F5F0540FC44CFC14
:100A5000D082158230F40FD3EC13FCEB13FBEA13B6
:100A6000FAE913F90582E930E70A74012AFAE43B4E
:100A7000FBE43CFC020AD87901AA82E68F82B582A7
:100A80001318E6B5F00E18E6B5830918E68A82B5A4
:100A90008202790022B4800FE5F0700AE5837006C7
:100AA000E58270027F00EFB6801518B6001018B608
:100AB000000B18B60006080808760022080808226D
:100AC000B98003EA13B34010EA2401FAE43BFBE4E3
:100AD0003CFC50047C800582BC000EBB000BBA00BD
:100AE00008E4F5F0F583F58222A2D1E582138CF0BB
:100AF00092F78B838A8222E4F583F58275F080F485
:100B0000A2D11322E4F583F58275F0C0747F2278B8
:100B100004EC7011E58224F8500AF582E4C9CACBCE
:100B2000FCD8EF22EC7820058220E713D582012241
:100B3000C3E933F9EA33FAEB33FBEC33FCD8EA15BB
:100B40008222AA82AB83A2F73392D16002D2F7F558
:100B500082ACF0E58124F9F8E6FD08E6FE0886F0AF
:100B600008E6A2F73392D56002D2F7F583AFF02200
:100B7000AA827481C0E0740BC0E0C03CC03D8A8290
:100B8000220543E4B54302054422AA8274302AFABE
:100B900024C6500A74072AFA3001034302208A82CD
:100BA000020B70E582FAC4540FF582C002120B8A60
:100BB000D002740F5AF582020B8AAA3EAB3FAC40BA
:100BC000AD41AE42754920EE2EFEED235401FF42A9
:100BD00006EA2AFAEB33FBEC33FCED33FDC3EE956A
:100BE000454008EEC39545FE430201D549D98A3EEA
:100BF0008B3F8C408D418E4222785AE624D075F08E
:100C00000AA4FA785BE624D02AFA78598603BB2D29
:100C100004C3E49AFA754501C3E464808AF063F082
:100C20008095F050297549038A0374F62549401CC4
:100C30000545E54914244EF8E549244EF98704A6F4
:100C400004772E1BEBFA6004054980DE8B02EA3044
:100C5000E70D784F86037850A603784F762E0AE585
:100C600047600AE54704FB2545F5458005300C0241
:100C70000545784E8603E4BB2D0104FB7006200772
:100C8000033008020545300503020D40300657EBDE
:100C9000600C75822DC002120B70D002801C3007D0
:100CA0000C75822BC002120B70D002800D30080A26
:100CB000758220C002120B70D002784F8604BC2EC1
:100CC0000C758230C002120B70D0021546AC46156E
:100CD00046C3E5459C4003020D84758230C0021274
:100CE0000B70D00280E7AC461546C3E5459C500C1E
:100CF000758220C002120B70D00280EA784E860402
:100D0000BC2D0C75822DC002120B70D002801C30DD
:100D1000070C75822BC002120B70D002800D3008B8
:100D20000A758220C002120B70D002784F8604BC74
:100D30002E52758230C002120B70D00215468044CC
:100D4000EB600E75822DC002120B70D0021546802A
:100D50002030070E75822BC002120B70D002154690
:100D6000800F30080C758220C002120B70D0021563
:100D700046784F8603BB2E0C758230C002120B7072
:100D8000D0021546754901C20EE549244EF8860386
:100D9000BB4503020E41BB2E348A03C3E464808B3F
:100DA000F063F08095F0500F758230C003120B7025
:100DB000D0031B8B0280E48B02D20EE547703820F3
:100DC0000C03020E4175822E120B708074300E27B8
:100DD0008A03EB30E71FC3E464808547F063F0804B
:100DE00095F0500C758230C003120B70D00315477C
:100DF0000B8B0280DD8B02300E0EC3E464808547CE
:100E0000F063F08095F05021E549244EF886038B7D
:100E100082C002120B70D002300E0EE549244EF84B
:100E20008603BB2E02800215471546C3E464808505
:100E300047F063F08095F04003200E050549020D50
:100E400089C3E464808547F063F08095F0500A75AB
:100E50008230120B70154780E830050FAA46154600
:100E6000EA6008758220120B7080F122E54770035A
:100E7000300C0D74072547FAE546C39AF5468006FF
:100E8000E54624FAF546754900784E8602BA2B0FDE
:100E900020070C784E76202008057549010546206C
:100EA0000519AA46C3E464808AF063F08095F05087
:100EB0000A758220120B70154680E7C20EE54924A0
:100EC0004EF88602BA00028069BA451F30010276E8
:100ED00065C3E464808547F063F08095F0500A753F
:100EE0008230120B70154780E8D20EC3E549940298
:100EF000E433FA7014EA700EC3E464808547F0634B
:100F0000F08095F04003300E16E549244EF8860235
:100F10008A82120B70E54924FD50121547800E7429
:100F200002B54909300C0675822E120B7005490274
:100F30000EBD300519AA46C3E464808AF063F080D0
:100F400095F0500A758220120B70154680E72285B5
:100F5000823C85833DE4F543F544AA4AAB4BAC4C57
:100F60008A828B838CF01206C1FD74012AF54AE453
:100F70003BF54B8C4CEDFA70030214F5BA25028058
:100F8000030214EDC205C206C207C208C209C20AA2
:100F9000C20BC20CC202C203C204754500754600F2
:100FA0007547FFAB4AAC4BAD4C8B828C838DF012F6
:100FB00006C1FAA3AB82AC838B4A8C4B8D4CBA250D
:100FC000078A82120B7080928A06BE3000402E8AF9
:100FD00006EE24C6402774FFB54713E54675F00AB0
:100FE000A4FEEA24D02EF54670BFD20680BBE547AA
:100FF00075F00AA4FEEA24D02EF54780ACBA2E0A7A
:1010000074FFB547A4754700809F8A06BE61004003
:101010000E8A06EE248540075302DFD2018002C209
:1010200001BA20028075BA23030210AABA2A030269
:1010300010AFBA2B02805FBA2D028055BA420280EF
:101040005FBA43030210F4BA440302122FBA4503F5
:10105000021249BA4603021245BA470302124DBAB8
:10106000490302122FBA4C02803BBA4E03021251BE
:10107000BA4F03021236BA50030211C8BA53030220
:101080001118BA550302123BBA5803021240021259
:101090007BD205020FA9D207020FA9D208020FA91D
:1010A000D20A020FA9D20B020FA9D20C020FA97407
:1010B000FFB54720300A0BE54D14F8884D864602EF
:1010C0000FA9E54D24FEF8884D8606088607188E80
:1010D00046020FA9300A0BE54D14F8884D864702E9
:1010E0000FA9E54D24FEF8884D8606088607188E60
:1010F00047020FA9300A0AE54D14F8884D86028090
:101100000FE54D24FEF8884D8603088604188B02EF
:101110008A82120B70021280E54D24FDF8884D86FC
:101120000308860408860518188B3E8C3F8D408B7B
:10113000828C838DF0121630AB82AC838B4874FFA7
:10114000B5470385484720051DC3E5489546501619
:10115000E546C39548F546AB461546EB60087582F3
:1011600020120B7080F1853E82853F838540F0120E
:1011700006C1FBFA6029AB471547C3E464808BF0D6
:1011800063F08095F050188A82120B70AB3EAC3F32
:10119000AD400BBB00010C8B3E8C3F8D4080C720C7
:1011A0000503021280C3E54895464003021280E51C
:1011B00046C39548F546AB461546EB7003021280D0
:1011C000758220120B7080EEE54D24FDF8884D8667
:1011D0000308860408860518188B3E8C3F8D40E571
:1011E00040FB30E7047A438013EB546060047A508C
:1011F000800AEB30E6047A4980027A588A82C0027B
:10120000120B7075823A120B70758230120B70756A
:101210008278120B70D002BA4902800BBA50028059
:1012200006853F82120BA3853E82120BA38051D20A
:101230000975450A804A754508804575450A80400C
:10124000754510803BD2028037D2038033D20480B0
:101250002FE54D24FDF8884D860308860408860591
:1012600018188B3E8C3F8D408B828C838DF0E5432C
:101270001208AAA3E5441208AA80058A82120B70FC
:10128000200206200303300470E54D24FCF8884D4D
:1012900086030886040886050886061818188B3EFB
:1012A0008C3F8D408E41E53EE53FE540E5418B8238
:1012B0008C838DF0EE12151174FFB5470375470648
:1012C000300427747F5541FB8B42E542EB2BFB8BAF
:1012D00042E54030E70674014542F542E5422468A4
:1012E0004006749925424002D203300306120E6C68
:1012F000020F5A120BF9020F5AE5457003020F5AFA
:101300007B53300A2BE54D14F8884DE6FC3395E00D
:10131000FDFEFF8C3E8D3F8E408F4120095EAC3E2E
:101320007D007E007F008C3E8D3F8E408F41804C43
:10133000300B1FE54D24FCF8884D8604088605080F
:1013400086060886071818188C3E8D3F8E408F4100
:10135000802AE54D24FEF8884D860408860518EDA0
:101360003395E0FEFF8C3E8D3F8E408F4120090C6F
:10137000AC3EAD3F7E007F008E408F41300C43E598
:101380003E453F4540454160397408B5450C75827E
:1013900030C003120B70D00380287410B54523753C
:1013A0008230C003120B70D00330010C758278C0FC
:1013B00003120B70D003800A758258C003120B70A1
:1013C000D003300925AC3EAD3FAE40E541FF30E7EC
:1013D00017C3E49CFCE49DFDE49EFEE49FFF8C3E6D
:1013E0008D3F8E408F418002C209754800D20D8B1F
:1013F00000754200C000120BBAD000200D0DE5426E
:10140000C4FCE6FD4CF61888038002A6420548B2EB
:101410000DE53E453F4540454170D68803E54670A1
:101420000375460120061A200517E54804FCC395FC
:1014300046500E758220C003120B70D003154680F3
:10144000E930090E75822DC003120B70D0031546CA
:101450008024E548602030070E75822BC003120BF4
:1014600070D0031546800F30080C758220C003121F
:101470000B70D003154620051EAC461546C3E54843
:101480009C50273006047C3080027C208C82C00374
:10149000120B70D00380E2C3E54895465009E5463B
:1014A000C39548F54680037546008B00AB48154848
:1014B000EB6022B20D200D0A08E6C4540FFB8B42EC
:1014C00080078603740F5BF542854282C000120BD1
:1014D0008AD00080D7200503020F5AAB461546EB91
:1014E0007003020F5A758220120B7080EE8A8212EE
:1014F0000B70020F5A85438285448322AA82BA0A5E
:101500000810990280FB75990D10990280FB8A9949
:1015100022C0E0F84582458345F07009F5F0FBFCF8
:10152000FDFE0215DFE823A2F792E0F8A982AA8364
:10153000D2F7ABF07C007E07C3749798404074FFED
:101540002EFE740A89F0A4F985F082740A8AF0A448
:10155000FA85F083740A8BF0A4FB740529F9EA3547
:1015600082FAEB3583FB740035F0FCC3EC13FCEB23
:1015700013FBEA13FAE913F908EC70EF80BAE8C339
:10158000947FF88B838EF0E4FBFCFDFEFF08C3E93B
:1015900033F9EA33FAE58333F583EB3BD4FBEC3CD8
:1015A000D4FCED3DD4FDEE3ED4FEEF3FD4FF602DE4
:1015B00005F074052BD4FBE43CD4FCE43DD4FDE4FD
:1015C0003ED4FEE43FD4FF758204C3EF13FFEE1355
:1015D000FEED13FDEC13FCEB13FBD582EDD8AF78D9
:1015E0004ED0E020E704762B8002762D087906E7BE
:1015F000C4540F4430F608B90603762E08E7540F9A
:101600004430F60819B902E7764508E5F020E7040A
:10161000762B8004762DF4040875F00A844430F6A5
:1016200008E5F04430F608E4F690004E75F04022EC
:10163000AA82AB83ACF07D007E008A828B838CF023
:101640001206C1FFA3AA82AB83EF60070DBD00EABB
:101650000E80E78D828E83220000000000000000D3
:00000001FF
